{"abi":[{"type":"function","name":"createJob","inputs":[{"name":"provider","type":"address","internalType":"address"},{"name":"escrowValueWei","type":"uint64","internalType":"uint64"},{"name":"challengeWindowSec","type":"uint64","internalType":"uint64"},{"name":"inputSpecHash","type":"bytes32","internalType":"bytes32"}],"outputs":[{"name":"jobId","type":"uint256","internalType":"uint256"}],"stateMutability":"payable"},{"type":"function","name":"jobs","inputs":[{"name":"","type":"uint256","internalType":"uint256"}],"outputs":[{"name":"requester","type":"address","internalType":"address"},{"name":"provider","type":"address","internalType":"address"},{"name":"valueWei","type":"uint64","internalType":"uint64"},{"name":"challengeWindowSec","type":"uint64","internalType":"uint64"},{"name":"inputSpecHash","type":"bytes32","internalType":"bytes32"},{"name":"resultHash","type":"bytes32","internalType":"bytes32"},{"name":"energyMicroKwh","type":"uint64","internalType":"uint64"},{"name":"attestationDigest","type":"bytes32","internalType":"bytes32"},{"name":"status","type":"uint8","internalType":"enum SettlementEscrow.JobStatus"}],"stateMutability":"view"},{"type":"function","name":"nextJobId","inputs":[],"outputs":[{"name":"","type":"uint256","internalType":"uint256"}],"stateMutability":"view"},{"type":"function","name":"releasePayment","inputs":[{"name":"jobId","type":"uint256","internalType":"uint256"}],"outputs":[],"stateMutability":"nonpayable"},{"type":"function","name":"submitResult","inputs":[{"name":"jobId","type":"uint256","internalType":"uint256"},{"name":"resultHash","type":"bytes32","internalType":"bytes32"},{"name":"energyMicroKwh","type":"uint64","internalType":"uint64"},{"name":"attestationDigest","type":"bytes32","internalType":"bytes32"},{"name":"","type":"bytes","internalType":"bytes"}],"outputs":[],"stateMutability":"nonpayable"},{"type":"event","name":"JobCreated","inputs":[{"name":"jobId","type":"uint256","indexed":true,"internalType":"uint256"},{"name":"requester","type":"address","indexed":true,"internalType":"address"},{"name":"provider","type":"address","indexed":true,"internalType":"address"},{"name":"valueWei","type":"uint64","indexed":false,"internalType":"uint64"},{"name":"challengeWindowSec","type":"uint64","indexed":false,"internalType":"uint64"},{"name":"inputSpecHash","type":"bytes32","indexed":false,"internalType":"bytes32"}],"anonymous":false},{"type":"event","name":"PaymentReleased","inputs":[{"name":"jobId","type":"uint256","indexed":true,"internalType":"uint256"}],"anonymous":false},{"type":"event","name":"ResultSubmitted","inputs":[{"name":"jobId","type":"uint256","indexed":true,"internalType":"uint256"},{"name":"resultHash","type":"bytes32","indexed":false,"internalType":"bytes32"},{"name":"energyMicroKwh","type":"uint64","indexed":false,"internalType":"uint64"},{"name":"attestationDigest","type":"bytes32","indexed":false,"internalType":"bytes32"}],"anonymous":false}],"bytecode":{"object":"0x608060405260015f553480156012575f5ffd5b50611362806100205f395ff3fe608060405260043610610049575f3560e01c8063180aedf31461004d5780632cdf97c11461009157806336bf8d63146100c157806388685cd9146100e9578063b0c2aa5e14610111575b5f5ffd5b348015610058575f5ffd5b50610073600480360381019061006e9190610ab2565b61013b565b60405161008899989796959493929190610bc9565b60405180910390f35b6100ab60048036038101906100a69190610cd2565b610209565b6040516100b89190610d45565b60405180910390f35b3480156100cc575f5ffd5b506100e760048036038101906100e29190610dbf565b6105a7565b005b3480156100f4575f5ffd5b5061010f600480360381019061010a9190610ab2565b61080c565b005b34801561011c575f5ffd5b50610125610a72565b6040516101329190610d45565b60405180910390f35b6001602052805f5260405f205f91509050805f015f9054906101000a900473ffffffffffffffffffffffffffffffffffffffff1690806001015f9054906101000a900473ffffffffffffffffffffffffffffffffffffffff16908060010160149054906101000a900467ffffffffffffffff1690806002015f9054906101000a900467ffffffffffffffff1690806003015490806004015490806005015f9054906101000a900467ffffffffffffffff1690806006015490806007015f9054906101000a900460ff16905089565b5f5f73ffffffffffffffffffffffffffffffffffffffff168573ffffffffffffffffffffffffffffffffffffffff1603610278576040517f08c379a000000000000000000000000000000000000000000000000000000000815260040161026f90610eaf565b60405180910390fd5b5f8467ffffffffffffffff16116102c4576040517f08c379a00000000000000000000000000000000000000000000000000000000081526004016102bb90610f17565b60405180910390fd5b5f3411610306576040517f08c379a00000000000000000000000000000000000000000000000000000000081526004016102fd90610f7f565b60405180910390fd5b5f5f81548092919061031790610fca565b9190505590506040518061012001604052803373ffffffffffffffffffffffffffffffffffffffff1681526020018673ffffffffffffffffffffffffffffffffffffffff1681526020013467ffffffffffffffff1681526020018467ffffffffffffffff1681526020018381526020015f5f1b81526020015f67ffffffffffffffff1681526020015f5f1b8152602001600160038111156103bb576103ba610b56565b5b81525060015f8381526020019081526020015f205f820151815f015f6101000a81548173ffffffffffffffffffffffffffffffffffffffff021916908373ffffffffffffffffffffffffffffffffffffffff1602179055506020820151816001015f6101000a81548173ffffffffffffffffffffffffffffffffffffffff021916908373ffffffffffffffffffffffffffffffffffffffff16021790555060408201518160010160146101000a81548167ffffffffffffffff021916908367ffffffffffffffff1602179055506060820151816002015f6101000a81548167ffffffffffffffff021916908367ffffffffffffffff1602179055506080820151816003015560a0820151816004015560c0820151816005015f6101000a81548167ffffffffffffffff021916908367ffffffffffffffff16021790555060e08201518160060155610100820151816007015f6101000a81548160ff0219169083600381111561052d5761052c610b56565b5b02179055509050508473ffffffffffffffffffffffffffffffffffffffff163373ffffffffffffffffffffffffffffffffffffffff16827f86cef3fe94a4f525f6ecb86a26af35a543888b16c1112535abd48c724b888abe34878760405161059793929190611011565b60405180910390a4949350505050565b5f60015f8881526020019081526020015f209050600160038111156105cf576105ce610b56565b5b816007015f9054906101000a900460ff1660038111156105f2576105f1610b56565b5b14610632576040517f08c379a000000000000000000000000000000000000000000000000000000000815260040161062990611090565b60405180910390fd5b806001015f9054906101000a900473ffffffffffffffffffffffffffffffffffffffff1673ffffffffffffffffffffffffffffffffffffffff163373ffffffffffffffffffffffffffffffffffffffff1614806106dc5750805f015f9054906101000a900473ffffffffffffffffffffffffffffffffffffffff1673ffffffffffffffffffffffffffffffffffffffff163373ffffffffffffffffffffffffffffffffffffffff16145b61071b576040517f08c379a0000000000000000000000000000000000000000000000000000000008152600401610712906110f8565b60405180910390fd5b5f5f1b860361075f576040517f08c379a000000000000000000000000000000000000000000000000000000000815260040161075690611160565b60405180910390fd5b85816004018190555084816005015f6101000a81548167ffffffffffffffff021916908367ffffffffffffffff1602179055508381600601819055506002816007015f6101000a81548160ff021916908360038111156107c2576107c1610b56565b5b0217905550867f561f6849dc46e5a8f92287d403e11e5bffa641624889587f85d7553dc65f08838787876040516107fb9392919061117e565b60405180910390a250505050505050565b5f60015f8381526020019081526020015f2090506002600381111561083457610833610b56565b5b816007015f9054906101000a900460ff16600381111561085757610856610b56565b5b14610897576040517f08c379a000000000000000000000000000000000000000000000000000000000815260040161088e906111fd565b60405180910390fd5b805f015f9054906101000a900473ffffffffffffffffffffffffffffffffffffffff1673ffffffffffffffffffffffffffffffffffffffff163373ffffffffffffffffffffffffffffffffffffffff1614610927576040517f08c379a000000000000000000000000000000000000000000000000000000000815260040161091e90611265565b60405180910390fd5b6003816007015f6101000a81548160ff0219169083600381111561094e5761094d610b56565b5b02179055505f816001015f9054906101000a900473ffffffffffffffffffffffffffffffffffffffff1673ffffffffffffffffffffffffffffffffffffffff168260010160149054906101000a900467ffffffffffffffff1667ffffffffffffffff166040516109bd906112b0565b5f6040518083038185875af1925050503d805f81146109f7576040519150601f19603f3d011682016040523d82523d5f602084013e6109fc565b606091505b5050905080610a40576040517f08c379a0000000000000000000000000000000000000000000000000000000008152600401610a379061130e565b60405180910390fd5b827f7094d01aa39ef767229e67850ef530b588b0dc1576b827e94f51a1f06300743460405160405180910390a2505050565b5f5481565b5f5ffd5b5f5ffd5b5f819050919050565b610a9181610a7f565b8114610a9b575f5ffd5b50565b5f81359050610aac81610a88565b92915050565b5f60208284031215610ac757610ac6610a77565b5b5f610ad484828501610a9e565b91505092915050565b5f73ffffffffffffffffffffffffffffffffffffffff82169050919050565b5f610b0682610add565b9050919050565b610b1681610afc565b82525050565b5f67ffffffffffffffff82169050919050565b610b3881610b1c565b82525050565b5f819050919050565b610b5081610b3e565b82525050565b7f4e487b71000000000000000000000000000000000000000000000000000000005f52602160045260245ffd5b60048110610b9457610b93610b56565b5b50565b5f819050610ba482610b83565b919050565b5f610bb382610b97565b9050919050565b610bc381610ba9565b82525050565b5f61012082019050610bdd5f83018c610b0d565b610bea602083018b610b0d565b610bf7604083018a610b2f565b610c046060830189610b2f565b610c116080830188610b47565b610c1e60a0830187610b47565b610c2b60c0830186610b2f565b610c3860e0830185610b47565b610c46610100830184610bba565b9a9950505050505050505050565b610c5d81610afc565b8114610c67575f5ffd5b50565b5f81359050610c7881610c54565b92915050565b610c8781610b1c565b8114610c91575f5ffd5b50565b5f81359050610ca281610c7e565b92915050565b610cb181610b3e565b8114610cbb575f5ffd5b50565b5f81359050610ccc81610ca8565b92915050565b5f5f5f5f60808587031215610cea57610ce9610a77565b5b5f610cf787828801610c6a565b9450506020610d0887828801610c94565b9350506040610d1987828801610c94565b9250506060610d2a87828801610cbe565b91505092959194509250565b610d3f81610a7f565b82525050565b5f602082019050610d585f830184610d36565b92915050565b5f5ffd5b5f5ffd5b5f5ffd5b5f5f83601f840112610d7f57610d7e610d5e565b5b8235905067ffffffffffffffff811115610d9c57610d9b610d62565b5b602083019150836001820283011115610db857610db7610d66565b5b9250929050565b5f5f5f5f5f5f60a08789031215610dd957610dd8610a77565b5b5f610de689828a01610a9e565b9650506020610df789828a01610cbe565b9550506040610e0889828a01610c94565b9450506060610e1989828a01610cbe565b935050608087013567ffffffffffffffff811115610e3a57610e39610a7b565b5b610e4689828a01610d6a565b92509250509295509295509295565b5f82825260208201905092915050565b7f70726f76696465723d30000000000000000000000000000000000000000000005f82015250565b5f610e99600a83610e55565b9150610ea482610e65565b602082019050919050565b5f6020820190508181035f830152610ec681610e8d565b9050919050565b7f76616c75653d30000000000000000000000000000000000000000000000000005f82015250565b5f610f01600783610e55565b9150610f0c82610ecd565b602082019050919050565b5f6020820190508181035f830152610f2e81610ef5565b9050919050565b7f6e6f2076616c75652073656e74000000000000000000000000000000000000005f82015250565b5f610f69600d83610e55565b9150610f7482610f35565b602082019050919050565b5f6020820190508181035f830152610f9681610f5d565b9050919050565b7f4e487b71000000000000000000000000000000000000000000000000000000005f52601160045260245ffd5b5f610fd482610a7f565b91507fffffffffffffffffffffffffffffffffffffffffffffffffffffffffffffffff820361100657611005610f9d565b5b600182019050919050565b5f6060820190506110245f830186610b2f565b6110316020830185610b2f565b61103e6040830184610b47565b949350505050565b7f6e6f7420637265617465640000000000000000000000000000000000000000005f82015250565b5f61107a600b83610e55565b915061108582611046565b602082019050919050565b5f6020820190508181035f8301526110a78161106e565b9050919050565b7f6e6f7420616c6c6f7765640000000000000000000000000000000000000000005f82015250565b5f6110e2600b83610e55565b91506110ed826110ae565b602082019050919050565b5f6020820190508181035f83015261110f816110d6565b9050919050565b7f726573756c743d300000000000000000000000000000000000000000000000005f82015250565b5f61114a600883610e55565b915061115582611116565b602082019050919050565b5f6020820190508181035f8301526111778161113e565b9050919050565b5f6060820190506111915f830186610b47565b61119e6020830185610b2f565b6111ab6040830184610b47565b949350505050565b7f6e6f20726573756c7400000000000000000000000000000000000000000000005f82015250565b5f6111e7600983610e55565b91506111f2826111b3565b602082019050919050565b5f6020820190508181035f830152611214816111db565b9050919050565b7f6f6e6c79207265717565737465720000000000000000000000000000000000005f82015250565b5f61124f600e83610e55565b915061125a8261121b565b602082019050919050565b5f6020820190508181035f83015261127c81611243565b9050919050565b5f81905092915050565b50565b5f61129b5f83611283565b91506112a68261128d565b5f82019050919050565b5f6112ba82611290565b9150819050919050565b7f7472616e73666572206661696c656400000000000000000000000000000000005f82015250565b5f6112f8600f83610e55565b9150611303826112c4565b602082019050919050565b5f6020820190508181035f830152611325816112ec565b905091905056fea2646970667358221220ca628f5c17d7204789032f01ae4633daf183b5ec86239b0a9129425c9097a9c564736f6c63430008210033","linkReferences":{}},"methodIdentifiers":{"createJob(address,uint64,uint64,bytes32)":"2cdf97c1","jobs(uint256)":"180aedf3","nextJobId()":"b0c2aa5e","releasePayment(uint256)":"88685cd9","submitResult(uint256,bytes32,uint64,bytes32,bytes)":"36bf8d63"},"id":1}